{
  "contractName": "FabCoin",
  "abi": [
    {
      "inputs": [
        {
          "internalType": "uint256",
          "name": "cap",
          "type": "uint256"
        }
      ],
      "stateMutability": "nonpayable",
      "type": "constructor"
    },
    {
      "anonymous": false,
      "inputs": [
        {
          "indexed": true,
          "internalType": "address",
          "name": "owner",
          "type": "address"
        },
        {
          "indexed": true,
          "internalType": "address",
          "name": "spender",
          "type": "address"
        },
        {
          "indexed": false,
          "internalType": "uint256",
          "name": "value",
          "type": "uint256"
        }
      ],
      "name": "Approval",
      "type": "event"
    },
    {
      "anonymous": false,
      "inputs": [
        {
          "indexed": true,
          "internalType": "address",
          "name": "from",
          "type": "address"
        },
        {
          "indexed": true,
          "internalType": "address",
          "name": "to",
          "type": "address"
        },
        {
          "indexed": false,
          "internalType": "uint256",
          "name": "value",
          "type": "uint256"
        }
      ],
      "name": "Transfer",
      "type": "event"
    },
    {
      "inputs": [
        {
          "internalType": "address",
          "name": "owner",
          "type": "address"
        },
        {
          "internalType": "address",
          "name": "spender",
          "type": "address"
        }
      ],
      "name": "allowance",
      "outputs": [
        {
          "internalType": "uint256",
          "name": "",
          "type": "uint256"
        }
      ],
      "stateMutability": "view",
      "type": "function"
    },
    {
      "inputs": [
        {
          "internalType": "address",
          "name": "spender",
          "type": "address"
        },
        {
          "internalType": "uint256",
          "name": "amount",
          "type": "uint256"
        }
      ],
      "name": "approve",
      "outputs": [
        {
          "internalType": "bool",
          "name": "",
          "type": "bool"
        }
      ],
      "stateMutability": "nonpayable",
      "type": "function"
    },
    {
      "inputs": [
        {
          "internalType": "address",
          "name": "account",
          "type": "address"
        }
      ],
      "name": "balanceOf",
      "outputs": [
        {
          "internalType": "uint256",
          "name": "",
          "type": "uint256"
        }
      ],
      "stateMutability": "view",
      "type": "function"
    },
    {
      "inputs": [],
      "name": "cap",
      "outputs": [
        {
          "internalType": "uint256",
          "name": "",
          "type": "uint256"
        }
      ],
      "stateMutability": "view",
      "type": "function"
    },
    {
      "inputs": [
        {
          "internalType": "address",
          "name": "spender",
          "type": "address"
        },
        {
          "internalType": "uint256",
          "name": "subtractedValue",
          "type": "uint256"
        }
      ],
      "name": "decreaseAllowance",
      "outputs": [
        {
          "internalType": "bool",
          "name": "",
          "type": "bool"
        }
      ],
      "stateMutability": "nonpayable",
      "type": "function"
    },
    {
      "inputs": [
        {
          "internalType": "address",
          "name": "spender",
          "type": "address"
        },
        {
          "internalType": "uint256",
          "name": "addedValue",
          "type": "uint256"
        }
      ],
      "name": "increaseAllowance",
      "outputs": [
        {
          "internalType": "bool",
          "name": "",
          "type": "bool"
        }
      ],
      "stateMutability": "nonpayable",
      "type": "function"
    },
    {
      "inputs": [],
      "name": "name",
      "outputs": [
        {
          "internalType": "string",
          "name": "",
          "type": "string"
        }
      ],
      "stateMutability": "view",
      "type": "function"
    },
    {
      "inputs": [],
      "name": "symbol",
      "outputs": [
        {
          "internalType": "string",
          "name": "",
          "type": "string"
        }
      ],
      "stateMutability": "view",
      "type": "function"
    },
    {
      "inputs": [],
      "name": "totalSupply",
      "outputs": [
        {
          "internalType": "uint256",
          "name": "",
          "type": "uint256"
        }
      ],
      "stateMutability": "view",
      "type": "function"
    },
    {
      "inputs": [
        {
          "internalType": "address",
          "name": "recipient",
          "type": "address"
        },
        {
          "internalType": "uint256",
          "name": "amount",
          "type": "uint256"
        }
      ],
      "name": "transfer",
      "outputs": [
        {
          "internalType": "bool",
          "name": "",
          "type": "bool"
        }
      ],
      "stateMutability": "nonpayable",
      "type": "function"
    },
    {
      "inputs": [
        {
          "internalType": "address",
          "name": "sender",
          "type": "address"
        },
        {
          "internalType": "address",
          "name": "recipient",
          "type": "address"
        },
        {
          "internalType": "uint256",
          "name": "amount",
          "type": "uint256"
        }
      ],
      "name": "transferFrom",
      "outputs": [
        {
          "internalType": "bool",
          "name": "",
          "type": "bool"
        }
      ],
      "stateMutability": "nonpayable",
      "type": "function"
    },
    {
      "inputs": [],
      "name": "claim",
      "outputs": [],
      "stateMutability": "nonpayable",
      "type": "function"
    },
    {
      "inputs": [],
      "name": "remaining",
      "outputs": [
        {
          "internalType": "uint256",
          "name": "",
          "type": "uint256"
        }
      ],
      "stateMutability": "view",
      "type": "function"
    },
    {
      "inputs": [],
      "name": "decimals",
      "outputs": [
        {
          "internalType": "uint8",
          "name": "",
          "type": "uint8"
        }
      ],
      "stateMutability": "view",
      "type": "function"
    }
  ],
  "bytecode": "0x60a06040523480156200001157600080fd5b5060405162001ad538038062001ad58339818101604052810190620000379190620001f5565b806040518060400160405280600781526020017f466162436f696e000000000000000000000000000000000000000000000000008152506040518060400160405280600381526020017f46414200000000000000000000000000000000000000000000000000000000008152508160039080519060200190620000bc9291906200012e565b508060049080519060200190620000d59291906200012e565b505050600081116200011e576040517f08c379a0000000000000000000000000000000000000000000000000000000008152600401620001159062000263565b60405180910390fd5b806080818152505050506200031f565b8280546200013c90620002a0565b90600052602060002090601f016020900481019282620001605760008555620001ac565b82601f106200017b57805160ff1916838001178555620001ac565b82800160010185558215620001ac579182015b82811115620001ab5782518255916020019190600101906200018e565b5b509050620001bb9190620001bf565b5090565b5b80821115620001da576000816000905550600101620001c0565b5090565b600081519050620001ef8162000305565b92915050565b6000602082840312156200020857600080fd5b60006200021884828501620001de565b91505092915050565b60006200023060158362000285565b91507f45524332304361707065643a20636170206973203000000000000000000000006000830152602082019050919050565b600060208201905081810360008301526200027e8162000221565b9050919050565b600082825260208201905092915050565b6000819050919050565b60006002820490506001821680620002b957607f821691505b60208210811415620002d057620002cf620002d6565b5b50919050565b7f4e487b7100000000000000000000000000000000000000000000000000000000600052602260045260246000fd5b620003108162000296565b81146200031c57600080fd5b50565b60805161179a6200033b60003960006104c1015261179a6000f3fe608060405234801561001057600080fd5b50600436106100ea5760003560e01c80634e71d92d1161008c57806395d89b411161006657806395d89b411461024f578063a457c2d71461026d578063a9059cbb1461029d578063dd62ed3e146102cd576100ea565b80634e71d92d146101f757806355234ec01461020157806370a082311461021f576100ea565b806323b872dd116100c857806323b872dd1461015b578063313ce5671461018b578063355274ea146101a957806339509351146101c7576100ea565b806306fdde03146100ef578063095ea7b31461010d57806318160ddd1461013d575b600080fd5b6100f76102fd565b60405161010491906113ef565b60405180910390f35b61012760048036038101906101229190610fe8565b61038f565b60405161013491906113d4565b60405180910390f35b6101456103ad565b6040516101529190611531565b60405180910390f35b61017560048036038101906101709190610f99565b6103b7565b60405161018291906113d4565b60405180910390f35b6101936104b8565b6040516101a0919061154c565b60405180910390f35b6101b16104bd565b6040516101be9190611531565b60405180910390f35b6101e160048036038101906101dc9190610fe8565b6104e5565b6040516101ee91906113d4565b60405180910390f35b6101ff610591565b005b610209610661565b6040516102169190611531565b60405180910390f35b61023960048036038101906102349190610f34565b610682565b6040516102469190611531565b60405180910390f35b6102576106ca565b60405161026491906113ef565b60405180910390f35b61028760048036038101906102829190610fe8565b61075c565b60405161029491906113d4565b60405180910390f35b6102b760048036038101906102b29190610fe8565b610850565b6040516102c491906113d4565b60405180910390f35b6102e760048036038101906102e29190610f5d565b61086e565b6040516102f49190611531565b60405180910390f35b60606003805461030c90611695565b80601f016020809104026020016040519081016040528092919081815260200182805461033890611695565b80156103855780601f1061035a57610100808354040283529160200191610385565b820191906000526020600020905b81548152906001019060200180831161036857829003601f168201915b5050505050905090565b60006103a361039c6108f5565b84846108fd565b6001905092915050565b6000600254905090565b60006103c4848484610ac8565b6000600160008673ffffffffffffffffffffffffffffffffffffffff1673ffffffffffffffffffffffffffffffffffffffff168152602001908152602001600020600061040f6108f5565b73ffffffffffffffffffffffffffffffffffffffff1673ffffffffffffffffffffffffffffffffffffffff1681526020019081526020016000205490508281101561048f576040517f08c379a000000000000000000000000000000000000000000000000000000000815260040161048690611471565b60405180910390fd5b6104ac8561049b6108f5565b85846104a791906115d9565b6108fd565b60019150509392505050565b600090565b60007f0000000000000000000000000000000000000000000000000000000000000000905090565b60006105876104f26108f5565b8484600160006105006108f5565b73ffffffffffffffffffffffffffffffffffffffff1673ffffffffffffffffffffffffffffffffffffffff16815260200190815260200160002060008873ffffffffffffffffffffffffffffffffffffffff1673ffffffffffffffffffffffffffffffffffffffff168152602001908152602001600020546105829190611583565b6108fd565b6001905092915050565b600061059c33610682565b1480156105f35750600560003373ffffffffffffffffffffffffffffffffffffffff1673ffffffffffffffffffffffffffffffffffffffff16815260200190815260200160002060009054906101000a900460ff16155b6105fc57600080fd5b610607336001610d47565b6001600560003373ffffffffffffffffffffffffffffffffffffffff1673ffffffffffffffffffffffffffffffffffffffff16815260200190815260200160002060006101000a81548160ff021916908315150217905550565b600061066b6103ad565b6106736104bd565b61067d91906115d9565b905090565b60008060008373ffffffffffffffffffffffffffffffffffffffff1673ffffffffffffffffffffffffffffffffffffffff168152602001908152602001600020549050919050565b6060600480546106d990611695565b80601f016020809104026020016040519081016040528092919081815260200182805461070590611695565b80156107525780601f1061072757610100808354040283529160200191610752565b820191906000526020600020905b81548152906001019060200180831161073557829003601f168201915b5050505050905090565b6000806001600061076b6108f5565b73ffffffffffffffffffffffffffffffffffffffff1673ffffffffffffffffffffffffffffffffffffffff16815260200190815260200160002060008573ffffffffffffffffffffffffffffffffffffffff1673ffffffffffffffffffffffffffffffffffffffff16815260200190815260200160002054905082811015610828576040517f08c379a000000000000000000000000000000000000000000000000000000000815260040161081f906114f1565b60405180910390fd5b6108456108336108f5565b85858461084091906115d9565b6108fd565b600191505092915050565b600061086461085d6108f5565b8484610ac8565b6001905092915050565b6000600160008473ffffffffffffffffffffffffffffffffffffffff1673ffffffffffffffffffffffffffffffffffffffff16815260200190815260200160002060008373ffffffffffffffffffffffffffffffffffffffff1673ffffffffffffffffffffffffffffffffffffffff16815260200190815260200160002054905092915050565b600033905090565b600073ffffffffffffffffffffffffffffffffffffffff168373ffffffffffffffffffffffffffffffffffffffff16141561096d576040517f08c379a0000000000000000000000000000000000000000000000000000000008152600401610964906114d1565b60405180910390fd5b600073ffffffffffffffffffffffffffffffffffffffff168273ffffffffffffffffffffffffffffffffffffffff1614156109dd576040517f08c379a00000000000000000000000000000000000000000000000000000000081526004016109d490611431565b60405180910390fd5b80600160008573ffffffffffffffffffffffffffffffffffffffff1673ffffffffffffffffffffffffffffffffffffffff16815260200190815260200160002060008473ffffffffffffffffffffffffffffffffffffffff1673ffffffffffffffffffffffffffffffffffffffff168152602001908152602001600020819055508173ffffffffffffffffffffffffffffffffffffffff168373ffffffffffffffffffffffffffffffffffffffff167f8c5be1e5ebec7d5bd14f71427d1e84f3dd0314c0f7b2291e5b200ac8c7c3b92583604051610abb9190611531565b60405180910390a3505050565b600073ffffffffffffffffffffffffffffffffffffffff168373ffffffffffffffffffffffffffffffffffffffff161415610b38576040517f08c379a0000000000000000000000000000000000000000000000000000000008152600401610b2f90611491565b60405180910390fd5b600073ffffffffffffffffffffffffffffffffffffffff168273ffffffffffffffffffffffffffffffffffffffff161415610ba8576040517f08c379a0000000000000000000000000000000000000000000000000000000008152600401610b9f90611411565b60405180910390fd5b610bb3838383610db1565b60008060008573ffffffffffffffffffffffffffffffffffffffff1673ffffffffffffffffffffffffffffffffffffffff16815260200190815260200160002054905081811015610c39576040517f08c379a0000000000000000000000000000000000000000000000000000000008152600401610c3090611451565b60405180910390fd5b8181610c4591906115d9565b6000808673ffffffffffffffffffffffffffffffffffffffff1673ffffffffffffffffffffffffffffffffffffffff16815260200190815260200160002081905550816000808573ffffffffffffffffffffffffffffffffffffffff1673ffffffffffffffffffffffffffffffffffffffff1681526020019081526020016000206000828254610cd59190611583565b925050819055508273ffffffffffffffffffffffffffffffffffffffff168473ffffffffffffffffffffffffffffffffffffffff167fddf252ad1be2c89b69c2b068fc378daa952ba7f163c4a11628f55a4df523b3ef84604051610d399190611531565b60405180910390a350505050565b610d4f6104bd565b81610d586103ad565b610d629190611583565b1115610da3576040517f08c379a0000000000000000000000000000000000000000000000000000000008152600401610d9a906114b1565b60405180910390fd5b610dad8282610db6565b5050565b505050565b600073ffffffffffffffffffffffffffffffffffffffff168273ffffffffffffffffffffffffffffffffffffffff161415610e26576040517f08c379a0000000000000000000000000000000000000000000000000000000008152600401610e1d90611511565b60405180910390fd5b610e3260008383610db1565b8060026000828254610e449190611583565b92505081905550806000808473ffffffffffffffffffffffffffffffffffffffff1673ffffffffffffffffffffffffffffffffffffffff1681526020019081526020016000206000828254610e999190611583565b925050819055508173ffffffffffffffffffffffffffffffffffffffff16600073ffffffffffffffffffffffffffffffffffffffff167fddf252ad1be2c89b69c2b068fc378daa952ba7f163c4a11628f55a4df523b3ef83604051610efe9190611531565b60405180910390a35050565b600081359050610f1981611736565b92915050565b600081359050610f2e8161174d565b92915050565b600060208284031215610f4657600080fd5b6000610f5484828501610f0a565b91505092915050565b60008060408385031215610f7057600080fd5b6000610f7e85828601610f0a565b9250506020610f8f85828601610f0a565b9150509250929050565b600080600060608486031215610fae57600080fd5b6000610fbc86828701610f0a565b9350506020610fcd86828701610f0a565b9250506040610fde86828701610f1f565b9150509250925092565b60008060408385031215610ffb57600080fd5b600061100985828601610f0a565b925050602061101a85828601610f1f565b9150509250929050565b61102d8161161f565b82525050565b600061103e82611567565b6110488185611572565b9350611058818560208601611662565b61106181611725565b840191505092915050565b6000611079602383611572565b91507f45524332303a207472616e7366657220746f20746865207a65726f206164647260008301527f65737300000000000000000000000000000000000000000000000000000000006020830152604082019050919050565b60006110df602283611572565b91507f45524332303a20617070726f766520746f20746865207a65726f20616464726560008301527f73730000000000000000000000000000000000000000000000000000000000006020830152604082019050919050565b6000611145602683611572565b91507f45524332303a207472616e7366657220616d6f756e742065786365656473206260008301527f616c616e636500000000000000000000000000000000000000000000000000006020830152604082019050919050565b60006111ab602883611572565b91507f45524332303a207472616e7366657220616d6f756e742065786365656473206160008301527f6c6c6f77616e63650000000000000000000000000000000000000000000000006020830152604082019050919050565b6000611211602583611572565b91507f45524332303a207472616e736665722066726f6d20746865207a65726f20616460008301527f64726573730000000000000000000000000000000000000000000000000000006020830152604082019050919050565b6000611277601983611572565b91507f45524332304361707065643a20636170206578636565646564000000000000006000830152602082019050919050565b60006112b7602483611572565b91507f45524332303a20617070726f76652066726f6d20746865207a65726f2061646460008301527f72657373000000000000000000000000000000000000000000000000000000006020830152604082019050919050565b600061131d602583611572565b91507f45524332303a2064656372656173656420616c6c6f77616e63652062656c6f7760008301527f207a65726f0000000000000000000000000000000000000000000000000000006020830152604082019050919050565b6000611383601f83611572565b91507f45524332303a206d696e7420746f20746865207a65726f2061646472657373006000830152602082019050919050565b6113bf8161164b565b82525050565b6113ce81611655565b82525050565b60006020820190506113e96000830184611024565b92915050565b600060208201905081810360008301526114098184611033565b905092915050565b6000602082019050818103600083015261142a8161106c565b9050919050565b6000602082019050818103600083015261144a816110d2565b9050919050565b6000602082019050818103600083015261146a81611138565b9050919050565b6000602082019050818103600083015261148a8161119e565b9050919050565b600060208201905081810360008301526114aa81611204565b9050919050565b600060208201905081810360008301526114ca8161126a565b9050919050565b600060208201905081810360008301526114ea816112aa565b9050919050565b6000602082019050818103600083015261150a81611310565b9050919050565b6000602082019050818103600083015261152a81611376565b9050919050565b600060208201905061154660008301846113b6565b92915050565b600060208201905061156160008301846113c5565b92915050565b600081519050919050565b600082825260208201905092915050565b600061158e8261164b565b91506115998361164b565b9250827fffffffffffffffffffffffffffffffffffffffffffffffffffffffffffffffff038211156115ce576115cd6116c7565b5b828201905092915050565b60006115e48261164b565b91506115ef8361164b565b925082821015611602576116016116c7565b5b828203905092915050565b60006116188261162b565b9050919050565b60008115159050919050565b600073ffffffffffffffffffffffffffffffffffffffff82169050919050565b6000819050919050565b600060ff82169050919050565b60005b83811015611680578082015181840152602081019050611665565b8381111561168f576000848401525b50505050565b600060028204905060018216806116ad57607f821691505b602082108114156116c1576116c06116f6565b5b50919050565b7f4e487b7100000000000000000000000000000000000000000000000000000000600052601160045260246000fd5b7f4e487b7100000000000000000000000000000000000000000000000000000000600052602260045260246000fd5b6000601f19601f8301169050919050565b61173f8161160d565b811461174a57600080fd5b50565b6117568161164b565b811461176157600080fd5b5056fea2646970667358221220120735a3d0850bbce158b0cfcd446055086d11a546eb5c00d5918825f0b51dc264736f6c63430008000033",
  "immutableReferences": {
    "698": [
      {
        "length": 32,
        "start": 1217
      }
    ]
  },
  "source": "// SPDX-License-Identifier: MIT\npragma solidity ^0.8.0;\n\nimport \"@openzeppelin/contracts/token/ERC20/extensions/ERC20Capped.sol\";\n\ncontract FabCoin is ERC20Capped {\n    mapping (address => bool) private _claimed;\n\n    constructor (uint256 cap) ERC20(\"FabCoin\", \"FAB\") ERC20Capped(cap) {}\n\n    function claim() public {\n        require(balanceOf(msg.sender) == 0 && !_claimed[msg.sender]);\n        _mint(msg.sender, 1);\n        _claimed[msg.sender] = true;\n    }\n\n    function remaining() public view returns (uint256) {\n      return cap() - totalSupply();\n    }\n\n    function decimals() public view virtual override returns (uint8) {\n        return uint8(0);\n    }\n}\n",
  "sourcePath": "/Users/famendola/FabCoinV2/contracts/FabCoin.sol",
  "compiler": {
    "name": "solc",
    "version": "0.8.0+commit.c7dfd78e.Emscripten.clang"
  },
  "schemaVersion": "3.3.4",
  "updatedAt": "2021-03-27T18:35:31.599Z",
  "devdoc": {
    "kind": "dev",
    "methods": {
      "allowance(address,address)": {
        "details": "See {IERC20-allowance}."
      },
      "approve(address,uint256)": {
        "details": "See {IERC20-approve}. Requirements: - `spender` cannot be the zero address."
      },
      "balanceOf(address)": {
        "details": "See {IERC20-balanceOf}."
      },
      "cap()": {
        "details": "Returns the cap on the token's total supply."
      },
      "decimals()": {
        "details": "Returns the number of decimals used to get its user representation. For example, if `decimals` equals `2`, a balance of `505` tokens should be displayed to a user as `5,05` (`505 / 10 ** 2`). Tokens usually opt for a value of 18, imitating the relationship between Ether and Wei. This is the value {ERC20} uses, unless this function is overloaded; NOTE: This information is only used for _display_ purposes: it in no way affects any of the arithmetic of the contract, including {IERC20-balanceOf} and {IERC20-transfer}."
      },
      "decreaseAllowance(address,uint256)": {
        "details": "Atomically decreases the allowance granted to `spender` by the caller. This is an alternative to {approve} that can be used as a mitigation for problems described in {IERC20-approve}. Emits an {Approval} event indicating the updated allowance. Requirements: - `spender` cannot be the zero address. - `spender` must have allowance for the caller of at least `subtractedValue`."
      },
      "increaseAllowance(address,uint256)": {
        "details": "Atomically increases the allowance granted to `spender` by the caller. This is an alternative to {approve} that can be used as a mitigation for problems described in {IERC20-approve}. Emits an {Approval} event indicating the updated allowance. Requirements: - `spender` cannot be the zero address."
      },
      "name()": {
        "details": "Returns the name of the token."
      },
      "symbol()": {
        "details": "Returns the symbol of the token, usually a shorter version of the name."
      },
      "totalSupply()": {
        "details": "See {IERC20-totalSupply}."
      },
      "transfer(address,uint256)": {
        "details": "See {IERC20-transfer}. Requirements: - `recipient` cannot be the zero address. - the caller must have a balance of at least `amount`."
      },
      "transferFrom(address,address,uint256)": {
        "details": "See {IERC20-transferFrom}. Emits an {Approval} event indicating the updated allowance. This is not required by the EIP. See the note at the beginning of {ERC20}. Requirements: - `sender` and `recipient` cannot be the zero address. - `sender` must have a balance of at least `amount`. - the caller must have allowance for ``sender``'s tokens of at least `amount`."
      }
    },
    "version": 1
  },
  "userdoc": {
    "kind": "user",
    "methods": {},
    "version": 1
  }
}